:02000000682E68
:100006002000F801F9011030FC00710DF80DF90D12
:100016007408F8027508031C750FF90203181A28EC
:100026007408F80775080318750FF9070310F00D23
:08003600F10DFC0B0828080085
:10003E00240014192C281F301605F1007108003AFF
:0E004E00031D2C280130F0002D28F0010800C1
:10005C0023009E18332800002E282200200823009D
:04006C009A000800EE
:10007000803021006A06F00080307002031D4228A3
:100080000030690203184D286908003CF0006A0836
:10009000031C013EF101F10251286908F0006A08D1
:0400A000F100080063
:1000A4002100ED0105306D02031862286D086B070D
:1000B400860000306C3D870020308100ED0A542812
:1000C4006D086B07860000306C3D87008101ED03ED
:1000D4006D086B07EE0000306C3DEF000A30F40051
:1000E400F5016908F0006A08F10003207808F000BF
:1000F4007908F1003030F00721006E0886006F089F
:100104008700700881000A30F400F5016908F000E6
:100114006A08F100032070082100E9007108EA0070
:1001240000307106031D982800307006031D9B28BB
:080134009D28ED036A28080074
:10013C0024001413941321000E148E143830240050
:04014C009500080012
:100150002E302100CF000030D0002030D1000130FF
:10016000D2005B30DB000130DC000030DD0000300D
:10017000DE001830D7000330D8000030D90000303E
:10018000DA00FF30D300FF30D4000030D50000305B
:10019000D60023009E1690309D0021008E160E166C
:1001A0002000911ED72823001908F000D02808004D
:1001B0002100EC01690884006A0885000008EB0052
:1001C0006B08003A0319F3286B082200A0002E20C8
:1001D0002100EC0A6C086907840000306A3D850044
:0801E0000008EB00E028080014
:1001E800200091112400961520009119FC28F82868
:1001F80024001108F10021006908003A031D0729AD
:100208002400961609292400961220009111240032
:1002180016162000911911290D297108F0000800FF
:0C02280024009614961C192916290800C1
:100234002100E901EA016A08123C031D2329690827
:100244008E3C031C2F291F20700803192A292F29EB
:100254002100E90A0319EA0A1D29210012306A0261
:10026400031D36298F306902031C3B297B30F000C3
:10027400412924001614161C40293D29F0010800C8
:060284002400161508001D
:10028A00200091112100690824009100141D4E29B3
:10029A004B292000911952294E292400161B57294F
:0C02AA00F0015A2916150230F00008007F
:1002B60023001908F1009D1C62291D121D167108E4
:0402C600F00008003C
:1002CA008030F0008030200068067002031D6F291C
:1002DA0067080D3C0318852980306806F0008030D5
:1002EA007002031D7A2913306702031885296708EB
:1002FA00E9006808EA000130B6000030B700C929F1
:10030A0080306806F0007F307002031D8E29F330BA
:10031A0067020318A8297F30F0008030680670024F
:10032A00031D99296708ED3C0318A8296708003CB2
:10033A00E9006808031C013EEA01EA020230B6003D
:10034A000030B700C9298030F00080303B067002C7
:10035A00031DB1293A080D3C0318C72980303B0612
:10036A00F00080307002031DBC2913303A020318D2
:10037A00C7293A08E9003B08EA000330B600003012
:0A038A00B700C929B601B701080049
:10039400003020006A06031DD1290E3069060319B6
:1003A400DC2900306A06031DD929123069060319B5
:1003B400DC29E22901302100B9000030BA000C2AFE
:1003C400003020006A06031DE9290F30690603196D
:1003D400F42900306A06031DF12911306906031956
:1003E400F429FA2902302100B9000030BA000C2A9D
:1003F400003020006A06031D012A10306906031D1F
:10040400092A03302100B9000030BA000C2A210067
:06041400B901BA01080065
:10041A001A213C302100E900452103302100E9007E
:10042A00452114213D302100E900452101302100F8
:10043A00E900F42070082100E000DF010130E90042
:10044A00F420700821005F07B7000030603DB80053
:10045A000430F00070080319362AB837B70CFF3E8B
:10046A00302A0130E900F42070082100E000DF01A1
:10047A000130E900F420700821005F072000ED0038
:10048A0000302100603D2000EE000430F0007008CA
:10049A000319532AEE37ED0CFF3E4D2A0130210095
:1004AA00E900F42070082100E000DF01E901F420EE
:1004BA00700821005F072000EB0000302100603D3A
:1004CA002000EC000430F00070080319702AEC37A1
:0A04DA00EB0CFF3E6A2A42210800E5
:1004E4001A2132302100E900452129302100E90098
:1004F4004521142133302100E90045212100E9017F
:10050400F4207008E800E70142211A21323021006A
:10051400E900452128302100E90045211421333028
:100524002100E90045212100E901F4207008E707D2
:100534000030E83D6808E7000030E81BFF30E800C1
:1005440042211A30FC00F830FD00FD0BA72AFC0BF9
:10055400A72A00001A2132302100E90045212B305E
:100564002100E9004521142133302100E90045210F
:100574002100E901F4207008BB00BA0142211A21CC
:1005840032302100E90045212A302100E9004521CB
:10059400142133302100E90045212100E901F42030
:1005A4007008BA070030BB3D3B08BA000030BB1BE3
:1005B400FF30BB0042211A30FC00F830FD00FD0B77
:1005C400E12AFC0BE12A00001A2132302100E90063
:1005D40045212D302100E90045211421333021002B
:1005E400E90045212100E901F4207008B900B801AF
:1005F40042211A2132302100E90045212C3021000A
:10060400E9004521142133302100E900452121006E
:10061400E901F4207008B8070030B93D3908B80082
:0C0624000030B91BFF30B9004221080073
:0C06300000302000911A0130F00008009A
:10063C001A213C302100E90045212100E901452126
:10064C0014302100E900452142211A213C302100BF
:10065C00E900452102302100E90045212100E90192
:10066C00452142211A213C302100E900452101306D
:10067C002100E900452180302100E900452142217B
:10068C001A2132302100E900452120302100E900F7
:10069C00452127302100E900452142211A21323021
:1006AC002100E900452123302100E90045212030BB
:0A06BC002100E90045214221080059
:1006C600083021008C00053020008C007430210099
:1006D60099001430240092009E200B30FB00263037
:1006E600FC005D30FD00FD0B762BFC0B762BFB0B27
:1006F600762B0000000023009F1510309B00003071
:100706009C001E15A8200B30FB002630FC005D3037
:10071600FD00FD0B8C2BFC0B8C2BFB0B8C2B00009C
:10072600000052302100E9000030EA00D8200B30EA
:10073600FB002630FC005D30FD00FD0BA02BFC0B02
:10074600A02BFB0BA02B000000004530E900003079
:10075600EA00D8200B30FB002630FC005D30FD009F
:10076600FD0BB32BFC0BB32BFB0BB32B00000000D4
:100776004030E9000030EA00D8201530FB004B304D
:10078600FC00BE30FD00FD0BC62BFC0BC62BFB0B85
:06079600C62B0000080064
:10079C0012001E00F003031DCE2BF103031DCE2B04
:0207AC00080043
:1007AE002100E501E6015F08E7006008E8008030FF
:1007BE006006F00080307002031DE72B00305F02F0
:1007CE000318F52B0130E5000030E6005F08003C11
:1007DE00E7006008031C013EE801E8026708E90033
:1007EE006808EA006108EB006208EC00522006304F
:1007FE00E3000030E4006408003C031D082C63088D
:10080E00003C0318232C6308610786006408623DD0
:10081E00870001306302F0000030643BF100700885
:10082E00610784007108623D850000088100013077
:10083E00E3020030E43B022C610886006208870068
:10084E0020308100650866040319492CE301E40198
:10085E006308610784006408623D85000008203A41
:10086E00031D3D2CE30A0319E40A2F2C0130E30289
:10087E000030E43B6308610786006408623D870030
:06088E002D30810008007E
:10089400200067082100E900200068082100EA0020
:1008A40038207008DF007108E00020003A082100B9
:1008B400E90020003B082100EA0038207008DF0727
:1008C4007108E03D200038082100E90020003908C3
:1008D4002100EA00382070085F07F2007108603DCB
:1008E400F3008030F000803073067002031D7C2C0E
:1008F4007208193C031CC52C200067082100E9007C
:10090400200068082100EA00382080307106F200D7
:1009140080307202031D902C0E3070020318BB2C21
:1009240020003A082100E90020003B082100EA00E9
:10093400382080307106F20080307202031DA42C2E
:100944000E3070020318BB2C200038082100E90087
:10095400200039082100EA00382080307106F200B6
:1009640080307202031DB82C0E3070020318BB2CA9
:10097400C52C003020003706031DC22C003036067B
:100984000319C52CCE2C20000130A0000030A1009A
:0E099400D80A0319D90AD02CA001A10108002D
:1009A2004E2E803020006C06F0007F307002031D56
:1009B200DC2CF9306B020318E32C0E30BE00013040
:1009C200BF004D2D80306C06F0007F307002031D99
:1009D200EC2CFC306B020318022D8030F0008030CA
:1009E2006E067002031DF72C6D08003C0318FD2CE7
:1009F200E130BE00BF01012D3B30BE000130BF001F
:100A02004D2D80306C06F00080307002031D0B2DDE
:100A120001306B0203181F2D8030F00080306E060B
:100A22007002031D162D6D08003C03181C2DB430F6
:100A3200BE00BF011E2DBE01BF014D2D80306C06D0
:100A4200F00080307002031D282D05306B02031860
:100A52003E2D8030F00080306E067002031D332D73
:100A62006D08003C0318392D8730BE00BF013D2DB3
:100A72002D30BE000030BF004D2D8030F0008030A0
:100A82006C067002031D472D6B08043C03184D2DA4
:100A92005A30BE000030BF00672E8030F000803038
:100AA2006C067002031D572D6B08053C03185E2D62
:100AB2000E30BE000130BF00C82D8030F000803003
:100AC2006C067002031D672D6B08023C03187D2D16
:100AD2008030F00080306E067002031D722D6D08AA
:100AE200003C0318782DE130BE00BF017C2D3B3065
:100AF200BE000130BF00C82D7F30F00080306C0690
:100B02007002031D862D6B08FC3C03189A2D803061
:100B1200F00080306E067002031D912D6D08003CBE
:100B22000318972DB430BE00BF01992DBE01BF013D
:100B3200C82D7F30F00080306C067002031DA32D9B
:100B42006B08F93C0318B92D8030F00080306E0636
:100B52007002031DAE2D6D08003C0318B42D8730C2
:100B6200BE00BF01B82D2D30BE000030BF00C82D21
:100B720080306C06F0007F307002031DC22DFA3007
:100B82006B020318C82D5A30BE000030BF00672E1A
:100B92008030F0008030210038067002031DD32D12
:100BA2003708033C0318DB2D0E302000BE00013055
:100BB200BF004D2E8030F0008030210038067002D8
:100BC200031DE52D3708003C0318FC2D8030F00092
:100BD200803020006E067002031DF12D6D08003C6E
:100BE2000318F72DE130BE00BF01FB2D3B30BE00E4
:100BF2000130BF004D2E7F30F000803021003806DA
:100C02007002031D062E3708F93C03181B2E803094
:100C1200F000803020006E067002031D122E6D0857
:100C2200003C0318182EB430BE00BF011A2EBE01BC
:100C3200BF014D2E7F30F000803021003806700257
:100C4200031D252E3708F53C03183C2E8030F0009A
:100C5200803020006E067002031D312E6D08003CAC
:100C62000318372E8730BE00BF013B2E2D30BE0049
:100C72000030BF004D2E803021003806F0007F305A
:100C82007002031D462EF630370203184D2E5A30DD
:100C92002000BE000030BF00672E20000030370663
:100CA200031D552E013036060319D22C00303706AB
:100CB200031D5D2E0230360603194E2D0030370615
:0E0CC200031D652E033036060319C92D0800E8
:100CD00088310020803163231E230630FB0013304F
:100CE000FC00AD30FD00FD0B732EFC0B732EFB0BD7
:100CF000732E00000000182370080319642F5B2175
:100D000070082000EF001A30FC00F830FD00FD0BE9
:100D1000872EFC0B872E00006F08733A031D642F8B
:100D2000BC01BD019B2EFD0B932EFC0B932EFB0BE8
:100D3000932E000000000D228230FC00DD30FD000B
:100D4000FD0BA02EFC0BA02E0000000072228230B2
:100D5000FC00DD30FD00FD0BAB2EFC0BAB2E0000CC
:100D6000000065214A241F30FB007130FC001E305A
:100D7000FD00FD0BB92EFC0BB92EFB0BB92E0000AC
:100D800000302106031DC62E00302006031D4D2F06
:100D90000130A0000030A1008230FC00DD30FD00F9
:100DA000FD0BD02EFC0BD02E00000000D124823091
:100DB000FC00DD30FD00FD0BDB2EFC0BDB2E00000C
:100DC0000000CA218230FC00DD30FD00FD0BE62E64
:100DD000FC0BE62E000000003908DF003A08E000B6
:100DE000C530E1000030E200D72320003E0821009A
:100DF000DF0020003F082100E000BB30E1000030B0
:100E0000E200D7232E30E9000030EA00D8202A3053
:100E1000E9000030EA00D8202230E9000030EA0082
:100E2000D820BB30E9000030EA00D8205C30E9006F
:100E30000030EA00D820C530E9000030EA00D820B0
:100E40005A30E9000030EA00D8208030F0008030CD
:100E5000200059067002031D2F2F5808013C03186B
:100E6000382FAD302100E9000030EA00D8203E2FB5
:100E70002100A030E9000030EA00D820B901BA0111
:100E80002000BE01BF01B601B701D801D90165300C
:100E90002100E9000030EA00D82018237008031967
:100EA000632F5B2170082000EF001A30FC00F8303F
:100EB000FD00FD0B592FFC0B592F00006F08733AF2
:0C0EC000031D632F642F9B2E7B2E652FDB
:1010000067308400873085004730F0000130F10000
:1010100020308600003087008031CE238831AE300A
:101020008400873085001730F0000130F100A030D7
:101030008600003087008031CE238831C53084009F
:10104000873085000830F0000130F10067308600FD
:10105000003087008031CE238831CD308400873046
:1010600085000430F0000130F100B7308600003018
:0A10700087008031CE23883108008C
:040ECE0001340034B7
:100ED2002034203420344434693472343D340034B4
:080EE200423431342C34003499
:0A0EEA00493444343D342034003410
:060EF40049340D34003406
:040EFA00003400348C
:040EFE000034003488
:040F02000034003483
:040F0600003400347F
:040F0A00003400347B
:0A0F0E0052342C3431340D34003419
:100F1800533452342C343334323430343034303463
:0A0F28003034303430340D3400341E
:0C0F3200533446342C3431340D34003478
:040F3E000034003447
:040F42002C34003417
:100F46002C342034203420344134633463343D342B
:020F5600003465
:040F58000A34003423
:100F5C002034203420344E346F3474344D346F3498
:0A0F6C00763469346E3467340034C3
:100F76002034203420346D346F34763469346E3442
:040F86006734003498
:040F8A0000340034FB
:040F8E0000340034F7
:040F920000340034F3
:040F960000340034EF
:040F9A0000340034EB
:040F9E0000340034E7
:020000040001F9
:04000E00E23F1316A4
:00000001FF
